:0400000080311C2807
:1000060008007E14803100308600003087000B1F08
:100016000D280E281A284101961E122813281A2880
:100026008C1E162817281A288C31FE2480317E1043
:10003600090080311E288731FE278031E70087318D
:10004600FF278031E800C4308400223085002C3040
:10005600FE000130FF008C31F22480312030840014
:10006600003085002B30FE000030FF008C31F2247A
:100076008031A0308400003085001230FE00003050
:10008600FF008C31F22480317E10400180314B28F4
:100096008D31432580318430F0000C30F1008C31F5
:1000A600902480318C31722480318B170B174A01D2
:1000B60010140B304001E0006230890B6028E00B21
:1000C600602800004230F0000030F1008D31BD257F
:1000D60080313930F0000030F1008D31BD2580319E
:1000E600A930F0000030F1008D31BD258031A030FF
:1000F600F0000030F1008D31BD2580314001E50171
:10010600E601C430E0002230E100650860078600A1
:100116006608613D870081010130E5070030E63D54
:10012600013066022C3003196502031C9B289C28AB
:100136008428B801B701AE01AF01AC01AD01B6012B
:10014600F901FA0100308331202380314230F60074
:100156000030F700003040010E1A0130F8008331FC
:10016600EA2380313930F6000030F70000304001D4
:100176008E1A0130F8008331EA238031A930F60067
:100186000030F700003040010C1A0130F8008331CE
:10019600EA238031A030F6000030F700003040013D
:1001A6008E190130F8008331EA2380310230400194
:1001B60037020318DF28E1280130E2280030E40086
:1001C6003808031DE728E8286F2949080319EC2891
:1001D600ED28F1288F31A6278031A9284A0803196E
:1001E600F528F628372902290130B70015290230EB
:1001F600B70015290330B7001529B70115293708A7
:10020600E000E1016108003A03190A2900296008A3
:10021600003A0319F728013A0319FA28033A031991
:10022600FD2800290230370203181A291C2901303B
:100236001D290030E4002F08AD002E08AC00013067
:10024600B600F901F90A6408FA0000308331202368
:100256008031A9284B30E2000030E3004A29F4300F
:10026600E2000130E3004A293708E000E1016108B5
:10027600003A03193F2932296008013A03192D294A
:10028600033A03193229013A03192D2932292C0878
:100296002E02E0002D082F3BE10063086102031DDA
:1002A600562962086002031C59295A29A9282F08D1
:1002B600AD002E08AC003608031962296429013006
:1002C60065290030B6003608F9006408FA000030E7
:1002D600833120238031A9283803031D732974290B
:1002E600FC294A08031978297929A029E501E6019C
:1002F600C430E0002230E100650860078600660829
:10030600613D870081010130E5070030E63D01309F
:1003160066022C3003196502031C922993297B2956
:10032600B8012F08AD002E08AC00B601F90164082B
:10033600FA00003083312023803140014008031940
:10034600A529A629AA2981308D310D2580314101A3
:1003560030080319AF29B029B42982308D310D2513
:100366008031410127080319B929BA29BE298330EA
:100376008D310D25803140013A080319C329C4295E
:10038600C6299A14C7299A1041012A080319CC29AB
:10039600CD29D02940011A15D22940011A1141014F
:1003A60021080319D729D829DB2940011916DD2987
:1003B600400119128531302580310230400138065E
:1003C600031DE629E729EB298E31A8268031A928C5
:1003D60003303806031DF029F129F5298D31302522
:1003E6008031A928F901FA010130833120238031B7
:1003F600A92802303806031D012A022A182A853147
:10040600AF25803140013808031D0A2A0B2AA92886
:100416002F08AD002E08AC00B601F9016408FA00F9
:100426000030833120238031A92803303806031D8C
:100436001D2A1E2AA9288E317226803140013808CD
:10044600031D262A272AA9282F08AD002E08AC004E
:10045600B601F9016408FA000030833120238031A7
:10046600A92880311C28400128082904031D3C2A9C
:100476003D2A422A0130DA000030DB00462A2908EC
:10048600DB002808DA0001305B022C3003195A021F
:10049600031C4E2A4F2A502ADC2AC430CF002230B1
:1004A600D0005A084F0786005B08503D87000108B8
:1004B600D900D60159080319612A622A682AD91B6C
:1004C600652A662A682A0130D6005608031D6C2A5A
:1004D6006D2A6E2AD72AC330CF002230D0005A08A0
:1004E6004F0786005B08503D87000108D800D81FDB
:1004F6007D2A7E2AC02A5B08F9005A08F8005808A7
:100506000339FA008631282682314001D500C330EE
:10051600CF002230D0005A084F0786005B08503DB6
:10052600870081015508031D992A9A2AB32AC330E8
:10053600CF002230D0005A084F0786005B08503D96
:100546008700C430D1002230D2005A0851078400F7
:100556005B08523D8500000881008D319825823167
:10056600C4304001CF002230D0005A084F07860021
:100576005B08503D87008101D72AC330CF00223067
:10058600D0005A084F0786005B08503D870059087F
:100596008100C430CF002230D0005A084F078600B1
:1005A6005B08503D870081010130DA070030DB3DF2
:1005B600462A37030319E02AE12AEA2A03303706D6
:1005C6000319E62AE72AEA2AD301D401F42A863156
:1005D600A12682314001CF00D0014F08D300500838
:1005E600D400EF30860023308700530881002808A6
:1005F60029040319FF2A002B042B0130A80200301E
:10060600A93BD701C43086002230870001080319B0
:100616000D2B0E2B182BC430860022308700811B31
:10062600152B162B182B0130D700570803191C2B36
:100636001D2B1F2B0330B80008004001CB008B1385
:10064600F601873114278331410111114001CD0193
:10065600CE01CF01D001D1014B080319332B342B26
:10066600A52BC430FB002230FC004D087B0786001A
:100676004E087C3D87000108D200D21F432B442B35
:10068600602B542BCF015930D000D101C02B5930EB
:10069600CF00D001D101C02BCF01D0015930D100FC
:1006A600C02B52080339013A0319452B033A0319A3
:1006B6004A2B013A03194F2BC02BCC0152080319C0
:1006C600652B662B6C2BD21B692B6A2B6C2B01308E
:1006D600CC004C080319702B712BC02B872B59307B
:1006E600CF00D001512BCF015930D000512B5930BA
:1006F600CF005930D000D101C02B5930CF0059302E
:10070600D0005930D100C02B5208FB000430FB3614
:10071600890B8A2B7B080739013A0319452B033AC3
:1007260003194A2B013A03194F2B073A0319722B67
:10073600013A0319762B033A03197A2B013A031966
:10074600802BC02B4D084E04031DAA2BAB2BC02BB0
:1007560079080319AF2BB02BC02B7A080319B42BD9
:10076600B52BBA2BCF011630D000D101C02B0B30E0
:10077600CF000B30D0000B30D1004F088C319624BF
:100786008331400150088C31962483314001510851
:100796008C319624833101304001CD070030CE3DA7
:1007A60001304E022C3003194D02031CDB2BDC2BCF
:1007B6002C2B8C316F248331A0300032890BE02B37
:1007C60010304001AE070030AF3D8B1708007608A9
:1007D6008600870147318101760886008701483106
:1007E60081017608860077088700010878060319D4
:1007F600FD2BFE2B102C76088600770887007808DC
:1008060081008C31CE2483317608860087014231FF
:100816007008C03F7108C13F752C760886008701B5
:100826004131010878060319192C1A2C752C760803
:10083600860087014231403FF400413FF5008C318C
:10084600AF24833100307502143003197402031C7F
:100856002D2C2E2C752C7608860087014131010837
:10086600F900760886008701413178088100790809
:10087600031D3E2C3F2C552C7803031D432C442C82
:10088600552C8C31CE24833176088600870144317D
:100896007008C03F7108C13F76088600870146315F
:1008A6008101752C7903031D592C5A2C752C780857
:1008B600031D5E2C5F2C752C760886008701463159
:1008C60001080319672C682C6F2C760886008701AF
:1008D600483101308100752C760886008701473142
:1008E6000130810076088600870141310103031D2E
:1008F6007D2C7E2CA12C76088600870146310108C6
:10090600031D862C872CA12C76088600870144318E
:10091600403FF400413FF5008C31AF248331033072
:100926007502E83003197402031C9A2C9B2CA12C27
:100936007608860087014631013081000800EF30D5
:10094600860023308700811FA92CAA2CB22CEF30F9
:1009560086002330870081018D31982584312A3025
:100966004001D5000130D600C430CF002230D0007F
:1009760055084F0786005608503D87000108D300EA
:10098600D31FC62CC72C232DC530CF002230D00054
:1009960055084F0786005608503D87000108D400C9
:1009A6005408031DD72CD82CF02CC530CF0022308C
:1009B600D00055084F0786005608503D870053085B
:1009C6008100C430CF002230D00055084F07860082
:1009D6005608503D87008101232DD2015408031982
:1009E600F52CF62CFC2CD41BF92CFA2CFC2C013003
:1009F600D20052080319002D012D232D5508013E62
:100A0600F8000030563DF90053080339FA008631E4
:100A1600282684314001D1005108031D132D142DC1
:100A2600172D8D3198258431C4304001CF002230F6
:100A3600D00055084F0786005608503D87008101B3
:100A460055085604031D282D292D2A2D2F2D01303A
:100A5600D5020030D63BB72C08008C31DA2485311C
:100A660071084001DF007008DE0020085E02DC002D
:100A760021085F3BDD0000305D02193003195C027E
:100A8600031C462D472D662D1930A0070030A13DC9
:100A96008431A2248531400137030319532D542D87
:100AA600662D033037060319592D5A2D662D8E31C2
:100AB600DF268531003A0319612D622D662D02303D
:100AC6004001B800AE2D400122085E02DC0023087A
:100AD6005F3BDD0027085D02031D732D26085C02BF
:100AE600031C762D772DAE2D2608A2072708A33DD9
:100AF600823136228531033040013806031D842DAC
:100B0600852D862DAE2D0130A4070030A53D0A3077
:100B1600F0000030F1002508F3002408F2008E31C1
:100B26004026853170087104031D9A2D9B2DAE2D2C
:100B3600003040012702833003192602031CA42D2E
:100B4600A52DAA2D1E30A6020030A73BAE2D64307F
:100B5600A6000030A700080040012A082E02D30094
:100B66002B082F3BD40000305402213003195302C6
:100B76000318BE2DBF2DC02D272E2F08AB002E0823
:100B8600AA002B30D7000130D800C430D300223061
:100B9600D4005708530786005808543D8700C330D1
:100BA600D5002230D6005708550784005808563D10
:100BB6008500000881000130D7020030D83B570875
:100BC6005804031DE72DE82DC82D0130B407043065
:100BD6003402031CEF2DF02DF22D0130B400C43089
:100BE6008600223087003408D3000430D335890BC1
:100BF600F92D5308C03FF901FA0101308331202352
:100C0600853101304001B5023508031D0B2E0C2E2F
:100C1600272ED701D801C430D3002230D40057087C
:100C2600530786005808543D870081010130D707D5
:100C36000030D83D013058022C3003195702031CEE
:100C4600252E262E0E2EB8010800C430FB002230B9
:100C5600FC0078087B07860079087C3D8700010840
:100C66004001CB004B080739CE007A03031D3C2E0A
:100C76003D2E402E0130CC004B2E02307A06031D4D
:100C8600452E462E492E0230CC004B2E0430CC0089
:100C96004E084C05031D502E512E532E0030A02E0B
:100CA6004C09CE054E08031D592E5A2E782E79086A
:100CB600F1007808F0008F31572786310130A02ED9
:100CC6000130CD008C2E0230CD008C2E0330CD00AD
:100CD6008C2E0630CD008C2E0530CD008C2E0430A7
:100CE600CD008C2E0730CD008C2E4E08013A03190C
:100CF600632E033A0319662E013A03196C2E073A3E
:100D06000319692E013A03196F2E033A0319722E3D
:100D1600752EC430FB002230FC0078087B07860065
:100D260079087C3D87004D08FD000430FD35890BB0
:100D3600992E7D084E048100512E08004001680856
:100D4600F1006708F0005530F2006230F3008D3193
:100D5600592586317008193E4001E7003630713D4D
:100D6600E80002303702031CB92EBA2EF42EC92E23
:100D76001130132F2230132F3430132F4630132FF8
:100D86005530132F6330132F7730132F0730F000B1
:100D96000030F1006808F7006708F6007708F600EB
:100DA600F7017608F2007708F3008E314026863187
:100DB6007108003A0319E02EC72E7008003A03198D
:100DC600BB2E013A0319BD2E033A0319BF2E013A71
:100DD6000319C12E073A0319C32E013A0319C52E6A
:100DE600C72E0330F0000030F1006808F7006708EE
:100DF600F6007708F600F7017608F2007708F300A8
:100E06008E31402686317108003A03190B2FBF2E0A
:100E16007008003A0319BB2E013A0319BD2EBF2EE6
:100E260008004F01901A182F192F7B2F7608F7000C
:100E3600F8017708F0007808F1000530F20000307C
:100E4600F3008D31592587311C307007840010302E
:100E5600713D8038850000084F018F007608F70045
:100E6600F8017708F0007808F1000530F20000304C
:100E7600F3008D31592587311D30700784001030FD
:100E8600713D8038850000084F0190007608F70014
:100E9600F8017708F0007808F1000530F20000301C
:100EA600F3008D31592587311E30700784001030CC
:100EB600713D8038850000084F0192007608F700E2
:100EC600F8017708F0007808F1000530F2000030EC
:100ED600F3008D31592587311F307007840010309B
:100EE600713D8038850000084F018D0090167B2FDC
:100EF60008000018C20960201F3EF0031F3EE103F0
:100F06001F3EF8339F05F0191F3EF0031F3EE10315
:100F16001F3E000C620960201F3EF0031F3EE103E6
:100F26001F3E0038C5092A0E5F0DEA2B1F3EE1035E
:100F36001F3EE1031F3CF0211F3EF0031F3EE1036D
:100F46001F3EE1031F3CF0211F3EF0031F3EE1035D
:100F56001F3E35295F3DF0151F3EF0031F3EE1039E
:100F66001F3EE103FF3D601E1F3EF0031F3EE103EF
:100F76001F3EE1031F3CF0211F3EF003083EFE2BFF
:100F8600420BE1031F3CF0211F3EF0031F3EE1032D
:100F96001F3E0020E20960201F3EF003183F313358
:100FA6001F3DF1231F3DF8111F3FE8231F3FF1238B
:100FB6001F3D6000000000000000003802004A01EA
:100FC6008C137C30F4000730F5008D31782587319D
:100FD60006304A0195009901980197019601410151
:100FE60013101D1093109D1013111D1193119D11B7
:0A0FF6004A018C170800E134AC3406
:1018DE004F019012080043019E1708007901120E65
:1018EE00890C013908007901921719141217080092
:1018FE007901191012139213080001304001AE073E
:10190E000030AF3D080071084001B3007008B2000E
:10191E00080071084001B1007008B0000800F10025
:10192E007108F0008C31E6248C31080060304501DE
:10193E008D008F0191010530930092010800410145
:10194E001B1111114F018F01900192018D010800A1
:10195E008C31CE248C3174087002F4007508713B02
:10196E00F500080073087901970072089600710857
:10197E00940070089300080041010C100B14003005
:10198E00F0000030F1008C318A248C3108008B136A
:10199E0040012F08F3002E08F2008B177308F10098
:1019AE007208F00008008B1340012F08F3002E0878
:1019BE00F2008B177308F1007208F000080070082F
:1019CE004F018C004101111DED2CEE2CE92C111153
:1019DE004F010C0808006400800101310130FE0245
:1019EE000030FF3B7F087E04031DF32C00344001C2
:1019FE00300831040319042D052D0A2D31088A00F3
:101A0E0030080A008D3141018C120800F000C430FC
:101A1E008600223087000108031D162D172D1D2D5F
:101A2E00C4308600223087007008C03F08007C302A
:101A3E0043019D009C0156309F0003304001B000D1
:101A4E000030B10041018C129616803043019E0089
:101A5E00080006304001B5008C31DA248D31710852
:101A6E004001AB007008AA009A141A15191601301D
:101A7E008F3117278D3108008C319D248D318731A0
:101A8E00E2278D318E310F268D318C31A6248D318A
:101A9E008D311E258D318D31E5258D318C31C3244F
:101AAE008D310800F401F501701C5E2D5F2D632D44
:101ABE007208F4077308F53D0130F235F30D890B0A
:101ACE00642D0130F136F00C890B692D700871040C
:101ADE00031D722D732D5B2D7508F1007408F00037
:101AEE0008007408663EF6000030753DF700750874
:101AFE00F1007408F0007708F3007608F2008C31DC
:101B0E00B9248D318C317A248D318C3175248D31FF
:101B1E00003A031D932D942D8C2D8C317F248D3105
:101B2E000800EF308600233087000108031DA02D2A
:101B3E00A12DA92DEF308600233087008631A126F6
:101B4E008D318100003040012702833003192602B7
:101B5E00031CB22DB32DB82D1E30A6020030A73BAC
:101B6E00BC2D6430A6000030A70008007008860067
:101B7E00710887008101700886008701413181015B
:101B8E0070088600870142310030C03FC13F7008A7
:101B9E008600870144310030C03FC13F7008860087
:101BAE008701463181017008860087014731810126
:101BBE007008860087014831810108007901A5016E
:101BCE000730A6000730A7002508F3390838A5000E
:101BDE00A401A301A201D530A100F330A505A401F3
:101BEE00A301A201A101A0019F019E019D01FF3051
:101BFE009700FF309600940193019A0141018D10D8
:101C0E0097100D1117117901A501103092000800DF
:101C1E004001980199019A0136309200E03093000C
:101C2E00F930940026307D018C00E0309600C130F2
:101C3E00A0008D019701A1018E019801A2013730FC
:101C4E008F00F0309900FF30A3002E309000E0306E
:101C5E009A00C130A40024307B018C007D019101DB
:101C6E00920193019B019C019D01A501A601A70173
:101C7E000800700871040319452E462E6D2E013092
:101C8E00F400502E0130F035F10D890B4A2E013043
:101C9E00F407F11F532E542E492E71087302031DA3
:101CAE005A2E70087202031C5D2E5E2E622E700874
:101CBE00F2027108F33B0130F136F00C890B632E02
:101CCE000130F402031D6C2E6D2E542E7308F1009C
:101CDE007208F000080040012A082E02F9002B08B5
:101CEE002F3BFA0000307A02C8300319790203182C
:101CFE00812E822E832EA72E8C31DA248E317108FE
:101D0E004001AB007008AA000130B5023508013958
:101D1E008F3117278E314001351C962E972E9B2E14
:101D2E009A141A1519169E2E9A101A111912350890
:101D3E00031DA22EA32EA72E9A101A111912B80146
:101D4E000800F801F901C430F5002230F6007808D9
:101D5E00750786007908763D87000330F000003065
:101D6E00F1007908F3007808F2008E3140268E31AA
:101D7E007008F7000430F735890BC22E7708103E35
:101D8E0081000130F8070030F93D013079022C3026
:101D9E0003197802031CD42ED52EAA2E5A304001D8
:101DAE00B5000130B4002F08AB002E08AA000800C1
:101DBE00F301F401F201C430F0002230F100730897
:101DCE00700786007408713D870001080319F02E14
:101DDE00F12E012FC430F0002230F100730870078D
:101DEE0086007408713D8700811BFE2EFF2E012F89
:101DFE000130F20072080319052F062F082F00304C
:101E0E00162F0130F3070030F43D013074022C30F0
:101E1E0003197302031C142F152FE12E0130080035
:101E2E004001CB00CC01CE01CD014B080319202F70
:101E3E00212F232F5930CE008B13F6018731142713
:101E4E008F31410111114001CF01D0014C088C316D
:101E5E0096248F3140014E088C3196248F314001EB
:101E6E004D088C3196248F3101304001CF07003060
:101E7E00D03D013050022C3003194F02031C482F65
:101E8E00492F2D2F8C316F248F31A0300032890BCA
:101E9E004D2F10304001AE070030AF3D8B170800BC
:101EAE004001370303195C2F5D2F9A2F033037063D
:101EBE000319622F632F9A2F7108F7007008F6002E
:101ECE00013077022B3003197602031C6F2F702F0F
:101EDE00712F942FC430F2002230F300760872076F
:101EEE0086007708733D8700C530F4002230F50078
:101EFE007608740784007708753D85000008810018
:101F0E000130F6070030F73D013077022B30031910
:101F1E007602031C932F942F712FEF3086002330FF
:101F2E0087008101A52FC430F2002230F300700823
:101F3E00720786007108733D870081010800FA015F
:101F4E00FB01C430F8002230F9007A0878078600C9
:101F5E007B08793D870081010130FA070030FB3D97
:101F6E0001307B022C3003197A02031CBF2FC02FC5
:101F7E00A82F1830FA000130FB00C430F8002230D0
:101F8E00F9007A08780786007B08793D870086314C
:101F9E00A1268F3181000130FA070030FB3D013060
:101FAE007B022C3003197A02031CDE2FDF2FC42F85
:101FBE0018304001A8000130A900F430A60001300D
:101FCE00A700A401A5018C31DA248F3171084001DC
:101FDE00A3007008A2008C31DA248F317108400101
:101FEE00A1007008A0000130B8009A101A11191241
:101FFE000800A6340C3400340034143407346F3423
:10200E000C34003400340034003400340034E63430
:10201E000C34003400340034003400340034003406
:10202E000034003400340034003424340A341034C4
:04203E00093400342D
:020000040001F9
:0A000E00EC3F3F3F9F3FFF3FFF3FE5
:00000001FF
