:1000000080311C28E134AC347E148031003086000D
:10001000003087000B1F0D280E281A284101961E5C
:10002000122813281A288C1E162817281A288C31F3
:10003000F42480317E10090080311E288031022096
:100040008031E700803103208031E800C430840033
:10005000223085002C30FE000130FF008C31E82476
:10006000803120308400003085002B30FE000030CD
:10007000FF008C31E8248031A030840000308500FE
:100080001230FE000030FF008C31E82480317E10F9
:10009000400180314B288731E62780317A30F000EB
:1000A0000C30F1008C31862480318731FC2780317F
:1000B0008B170B174A0110140B304001E00062301F
:1000C000890B6028E00B602800004230F00000300F
:1000D000F1008D31B92580313930F0000030F10068
:1000E0008D31B9258031A930F0000030F1008D311B
:1000F000B9258031A030F0000030F1008D31B925F4
:1001000080314001E501E601C430E0002230E10029
:100110006508600786006608613D8700810101303F
:10012000E5070030E63D013066022C300319650218
:10013000031C9B289C288428B801B701AE01AF019D
:10014000AC01AD01B601F901FA0100308331202381
:1001500080314230F6000030F700003040010E1AC6
:100160000130F8008331EE2380313930F600003061
:10017000F700003040018E1A0130F8008331EE2381
:100180008031A930F6000030F700003040010C1A31
:100190000130F8008331EE238031A030F6000030CA
:1001A000F700003040018E190130F8008331EE2352
:1001B00080310230400137020318DF28E128013086
:1001C000E2280030E4003808031DE728E8286F29FA
:1001D00049080319EC28ED28F1288F31A627803132
:1001E000A9284A080319F528F628372902290130D9
:1001F000B70015290230B70015290330B7001529BB
:10020000B70115293708E000E1016108003A031938
:100210000A2900296008003A0319F728013A03194E
:10022000FA28033A0319FD2800290230370203187F
:100230001A291C2901301D290030E4002F08AD00C7
:100240002E08AC000130B600F901F90A6408FA0082
:100250000030833120238031A9284B30E200003068
:10026000E3004A29F430E2000130E3004A2937086C
:10027000E000E1016108003A03193F2932296008D2
:10028000013A03192D29033A03193229013A0319B6
:100290002D2932292C082E02E0002D082F3BE100E9
:1002A00063086102031D562962086002031C592974
:1002B0005A29A9282F08AD002E08AC0036080319CA
:1002C00062296429013065290030B6003608F9003A
:1002D0006408FA000030833120238031A9283803D4
:1002E000031D73297429FC294A08031978297929DF
:1002F000A029E501E601C430E0002230E1006508F4
:10030000600786006608613D870081010130E507CE
:100310000030E63D013066022C3003196502031CF3
:10032000922993297B29B8012F08AD002E08AC0033
:10033000B601F9016408FA000030833120238031CE
:10034000400140080319A529A629AA2981308D3129
:1003500003258031410130080319AF29B029B429A0
:1003600082308D3103258031410127080319B929D5
:10037000BA29BE2983308D310325803140013A08E6
:100380000319C329C429C6299A14C7299A104101FF
:100390002A080319CC29CD29D02940011A15D229C0
:1003A00040011A11410121080319D729D829DB2955
:1003B00040011916DD29400119128531342580319B
:1003C000023040013806031DE629E729EB298E316A
:1003D000A4268031A92803303806031DF029F1290D
:1003E000F5298D3126258031A928F901FA0101303E
:1003F000833120238031A92802303806031D012AC9
:10040000022A182A8531B325803140013808031D9E
:100410000A2A0B2AA9282F08AD002E08AC00B60125
:10042000F9016408FA000030833120238031A928C3
:1004300003303806031D1D2A1E2AA9288E316E2678
:10044000803140013808031D262A272AA9282F08B1
:10045000AD002E08AC00B601F9016408FA000030C6
:10046000833120238031A92880311C2840012808AD
:100470002904031D3C2A3D2A422A0130DA000030BB
:10048000DB00462A2908DB002808DA0001305B027D
:100490002C3003195A02031C4E2A4F2A502ADC2AF8
:1004A000C430CF002230D0005A084F0786005B08C6
:1004B000503D87000108D900D60159080319612A67
:1004C000622A682AD91B652A662A682A0130D60062
:1004D0005608031D6C2A6D2A6E2AD72AC330CF0016
:1004E0002230D0005A084F0786005B08503D870035
:1004F0000108D800D81F7D2A7E2AC02A5B08F9008F
:100500005A08F80058080339FA0086312C2682313F
:100510004001D500C330CF002230D0005A084F0729
:1005200086005B08503D870081015508031D992A0C
:100530009A2AB32AC330CF002230D0005A084F077E
:1005400086005B08503D8700C430D1002230D200C5
:100550005A08510784005B08523D8500000881005D
:100560008D3194258231C4304001CF002230D0003B
:100570005A084F0786005B08503D87008101D72A43
:10058000C330CF002230D0005A084F0786005B08E6
:10059000503D870059088100C430CF002230D00080
:1005A0005A084F0786005B08503D870081010130E3
:1005B000DA070030DB3D462A37030319E02AE12A37
:1005C000EA2A033037060319E62AE72AEA2AD30182
:1005D000D401F42A8631A52682314001CF00D00112
:1005E0004F08D3005008D400EF3086002330870036
:1005F00053088100280829040319FF2A002B042B23
:100600000130A8020030A93BD701C4308600223057
:100610008700010803190D2B0E2B182BC430860000
:1006200022308700811B152B162B182B0130D70089
:10063000570803191C2B1D2B1F2B0330B800080073
:100640004001CB008B13F60187311827833141011C
:1006500011114001CD01CE01CF01D001D1014B08D4
:100660000319332B342BA52BC430FB002230FC00A4
:100670004D087B0786004E087C3D87000108D200AC
:10068000D21F432B442B602B542BCF015930D00069
:10069000D101C02B5930CF00D001D101C02BCF01E7
:1006A000D0015930D100C02B52080339013A031947
:1006B000452B033A03194A2B013A03194F2BC02B40
:1006C000CC0152080319652B662B6C2BD21B692BAE
:1006D0006A2B6C2B0130CC004C080319702B712B4A
:1006E000C02B872B5930CF00D001512BCF0159306F
:1006F000D000512B5930CF005930D000D101C02B40
:100700005930CF005930D0005930D100C02B520899
:10071000FB000430FB36890B8A2B7B080739013A32
:100720000319452B033A03194A2B013A03194F2B9E
:10073000073A0319722B013A0319762B033A03196E
:100740007A2B013A0319802BC02B4D084E04031D50
:10075000AA2BAB2BC02B79080319AF2BB02BC02BC6
:100760007A080319B42BB52BBA2BCF011630D00061
:10077000D101C02B0B30CF000B30D0000B30D1009B
:100780004F088C318C248331400150088C318C24EB
:100790008331400151088C318C24833100308C31FD
:1007A0008C24833101304001CD070030CE3D013033
:1007B0004E022C3003194D02031CDF2BE02B2C2B97
:1007C0008C3168248331A0300032890BE42B103047
:1007D0004001AE070030AF3D8B1708007608860059
:1007E0008701473181017608860087014831810100
:1007F0007608860077088700010878060319012C1F
:10080000022C142C7608860077088700780881006F
:100810008C31C42483317608860087014231700808
:10082000C03F7108C13F792C7608860087014131AD
:100830000108780603191D2C1E2C792C76088600D9
:1008400087014231403FF400413FF5008C31A5243F
:10085000833100307502143003197402031C312CEB
:10086000322C792C76088600870141310108F90085
:100870007608860087014131780881007908031DD8
:10088000422C432C592C7803031D472C482C592CFF
:100890008C31C42483317608860087014431700886
:1008A000C03F7108C13F760886008701463181014B
:1008B000792C7903031D5D2C5E2C792C7808031D9F
:1008C000622C632C792C760886008701463101085A
:1008D00003196B2C6C2C732C760886008701483129
:1008E00001308100792C760886008701473101307C
:1008F000810076088600870141310103031D812CA8
:10090000822CA52C76088600870146310108031D3C
:100910008A2C8B2CA52C7608860087014431403F19
:10092000F400413FF5008C31A5248331033075027A
:10093000E83003197402031C9E2C9F2CA52C76080A
:10094000860087014631013081000800EF308600C3
:1009500023308700811FAD2CAE2CB62CEF308600E3
:100960002330870081018D31942584312A30400164
:10097000D5000130D600C430CF002230D000550859
:100980004F0786005608503D87000108D300D31F4B
:10099000CA2CCB2C272DC530CF002230D0005508D3
:1009A0004F0786005608503D87000108D4005408C0
:1009B000031DDB2CDC2CF42CC530CF002230D00002
:1009C00055084F0786005608503D870053088100A0
:1009D000C430CF002230D00055084F07860056089B
:1009E000503D87008101272DD20154080319F92CAD
:1009F000FA2C002DD41BFD2CFE2C002D0130D20032
:100A000052080319042D052D272D5508013EF80025
:100A10000030563DF90053080339FA0086312C2680
:100A200084314001D1005108031D172D182D1B2DB5
:100A30008D3194258431C4304001CF002230D00064
:100A400055084F0786005608503D8700810155081C
:100A50005604031D2C2D2D2D2E2D332D0130D502A6
:100A60000030D63BBB2C08008C31D0248531710876
:100A70004001DF007008DE0020085E02DC00210873
:100A80005F3BDD0000305D02193003195C02031C7E
:100A90004A2D4B2D6A2D1930A0070030A13D84311D
:100AA000A6248531400137030319572D582D6A2D8F
:100AB0000330370603195D2D5E2D6A2D8E31DB263E
:100AC0008531003A0319652D662D6A2D02304001EB
:100AD000B800B22D400122085E02DC0023085F3B13
:100AE000DD0027085D02031D772D26085C02031C2C
:100AF0007A2D7B2DB22D2608A2072708A33D82312F
:100B000036228531033040013806031D882D892D9A
:100B10008A2DB22D0130A4070030A53D0A30F00027
:100B20000030F1002508F3002408F2008E313C2645
:100B3000853170087104031D9E2D9F2DB22D00304C
:100B400040012702833003192602031CA82DA92D7A
:100B5000AE2D1E30A6020030A73BB22D6430A60099
:100B60000030A700080040012A082E02D3002B08FD
:100B70002F3BD400003054022130031953020318D4
:100B8000C22DC32DC42D2B2E2F08AB002E08AA007A
:100B90002B30D7000130D800C430D3002230D4002D
:100BA0005708530786005808543D8700C330D500C6
:100BB0002230D6005708550784005808563D850056
:100BC000000881000130D7020030D83B5708580494
:100BD000031DEB2DEC2DCC2D0130B4070430340275
:100BE000031CF32DF42DF62D0130B400C430860023
:100BF000223087003408D3000430D335890BFD2D13
:100C00005308C03FF901FA010130833120238531B7
:100C100001304001B5023508031D0F2E102E2B2E7A
:100C2000D701D801C430D3002230D400570853076D
:100C300086005808543D870081010130D7070030F5
:100C4000D83D013058022C3003195702031C292EBD
:100C50002A2E122EB8010800C430FB002230FC00FE
:100C600078087B07860079087C3D870001084001F1
:100C7000CB004B080739CE007A03031D402E412ECE
:100C8000442E0130CC004F2E02307A06031D492E2F
:100C90004A2E4D2E0230CC004F2E0430CC004E0890
:100CA0004C05031D542E552E572E0030A42E4C09F2
:100CB000CE054E08031D5D2E5E2E7C2E7908F100B8
:100CC0007808F0008F31572786310130A42E01308B
:100CD000CD00902E0230CD00902E0330CD00902E0E
:100CE0000630CD00902E0530CD00902E0430CD0082
:100CF000902E0730CD00902E4E08013A0319672E32
:100D0000033A03196A2E013A0319702E073A0319A0
:100D10006D2E013A0319732E033A0319762E792E9C
:100D2000C430FB002230FC0078087B07860079087D
:100D30007C3D87004D08FD000430FD35890B9D2E5C
:100D40007D084E048100552E080040016808F1001E
:100D50006708F0005530F2006230F3008D31552500
:100D600086317008193E4001E7003630713DE800D9
:100D700002303702031CBD2EBE2EF82ECD2E1130B0
:100D8000172F2230172F3430172F4630172F55309A
:100D9000172F6330172F7730172F0730F0000030F0
:100DA000F1006808F7006708F6007708F600F70119
:100DB0007608F2007708F3008E313C268631710800
:100DC000003A0319E42ECB2E7008003A0319BF2E07
:100DD000013A0319C12E033A0319C32E013A03192C
:100DE000C52E073A0319C72E013A0319C92ECB2E77
:100DF0000330F0000030F1006808F7006708F600E3
:100E00007708F600F7017608F2007708F3008E31D4
:100E10003C2686317108003A03190F2FC32E700843
:100E2000003A0319BF2E013A0319C12EC32E080040
:100E30004F01901A1C2F1D2F7F2F7608F700F80105
:100E40007708F0007808F1000530F2000030F30078
:100E50008D31552587311C30700784001030713D6D
:100E60008038850000084F018F007608F700F801F0
:100E70007708F0007808F1000530F2000030F30048
:100E80008D31552587311D30700784001030713D3C
:100E90008038850000084F0190007608F700F801BF
:100EA0007708F0007808F1000530F2000030F30018
:100EB0008D31552587311E30700784001030713D0B
:100EC0008038850000084F0192007608F700F8018D
:100ED0007708F0007808F1000530F2000030F300E8
:100EE0008D31552587311F30700784001030713DDA
:100EF0008038850000084F018D0090167F2F080074
:100F00000018C20960201F3EF0031F3EE1031F3E90
:100F1000F8339F05F0191F3EF0031F3EE1031F3E0B
:100F2000000C620960201F3EF0031F3EE1031F3EDC
:100F30000038C5092A0E5F0DEA2B1F3EE1031F3E54
:100F4000E1031F3CF0211F3EF0031F3EE1031F3E63
:100F5000E1031F3CF0211F3EF0031F3EE1031F3E53
:100F600035295F3DF0151F3EF0031F3EE1031F3E94
:100F7000E103FF3D601E1F3EF0031F3EE1031F3EE5
:100F8000E1031F3CF0211F3EF003083EFE2B420B05
:100F9000E1031F3CF0211F3EF0031F3EE1031F3E13
:100FA0000020E20960201F3EF003183F31331F3D4F
:100FB000F1231F3DF8111F3FE8231F3FF1231F3D81
:100FC0006000000000000000003802008C31932413
:100FD00087318D31392587318E310B2687318C3120
:100FE0009C2487318D31142587318D31E12587315E
:100FF0008C31B9248731080043019E17080008008E
:1018D0004F01901208007901120E890C013908009D
:1018E00079019217191412170800790119101213AF
:1018F0009213080001304001AE070030AF3D0800F0
:1019000071084001B3007008B2000800710840017E
:10191000B1007008B0000800F1007108F0008C31CF
:10192000DC248C310800603045018D008F0191016D
:10193000053093009201080041011B1111114F0164
:101940008F01900192018D0108008C31C4248C31EB
:1019500074087002F4007508713BF5000800730804
:10196000790197007208960071089400700893003E
:10197000080041010C100B140030F0000030F100A1
:101980008C3180248C3108008B1340012F08F30028
:101990002E08F2008B177308F1007208F00008009F
:1019A0008B1340012F08F3002E08F2008B177308E9
:1019B000F1007208F000080070084F018C0041012E
:1019C000111DE32CE42CDF2C11114F010C08080031
:1019D0006400800101310130FE020030FF3B7F08CE
:1019E0007E04031DE92C0034400130083104031942
:1019F000FA2CFB2C002D31088A0030080A008C31AB
:101A000041018C120800F000C430860022308700AB
:101A10000108031D0C2D0D2D132DC430860022301E
:101A200087007008C03F08007C3043019D009C0186
:101A300056309F00FF304001B0000730B100410137
:101A40008C129616803043019E000800063040013B
:101A5000B5008C31D0248D3171084001AB00700885
:101A6000AA009A141A15191601308F3113278D31D7
:101A700008004A018C138030F4000730F5008D31E6
:101A800074258D3106304A0195009901980197011E
:101A90009601410113101D1093109D1013111D117B
:101AA00093119D114A018C170800F401F501701C77
:101AB0005A2D5B2D5F2D7208F4077308F53D013038
:101AC000F235F30D890B602D0130F136F00C890BE6
:101AD000652D70087104031D6E2D6F2D572D75082F
:101AE000F1007408F00008007408663EF60000304B
:101AF000753DF7007508F1007408F0007708F300F1
:101B00007608F2008C31AF248D318C3170248D3108
:101B10008C316B248D31003A031D8F2D902D882D33
:101B20008C3175248D310800EF308600233087001A
:101B30000108031D9C2D9D2DA52DEF30860023301F
:101B400087008631A5268D318100003040012702B3
:101B5000833003192602031CAE2DAF2DB42D1E3089
:101B6000A6020030A73BB82D6430A6000030A700C5
:101B700008007008860071088700810170088600DF
:101B800087014131810170088600870142310030B0
:101B9000C03FC13F70088600870144310030C03F1C
:101BA000C13F7008860087014631810170088600B8
:101BB0008701473181017008860087014831810122
:101BC00008007901A5010730A6000730A700250805
:101BD000F3390838A500A401A301A201D530A10062
:101BE000F330A505A401A301A201A101A0019F0159
:101BF0009E019D01FF309700FF30960094019301F4
:101C00009A0141018D1097100D1117117901A5014D
:101C10001030920008004001980199019A01363075
:101C20009200E0309300F930940026307D018C0062
:101C3000E0309600C130A0008D019701A1018E0116
:101C40009801A20137308F00F0309900FF30A300D7
:101C50002E309000E0309A00C130A40024307B0187
:101C60008C007D019101920193019B019C019D01DA
:101C7000A501A601A7010800700871040319412EEF
:101C8000422E692E0130F4004C2E0130F035F10D5A
:101C9000890B462E0130F407F11F4F2E502E452E92
:101CA00071087302031D562E70087202031C592E10
:101CB0005A2E5E2E7008F2027108F33B0130F136A5
:101CC000F00C890B5F2E0130F402031D682E692E83
:101CD000502E7308F1007208F000080040012A0835
:101CE0002E02F9002B082F3BFA0000307A02C83090
:101CF0000319790203187D2E7E2E7F2EA32E8C31A0
:101D0000D0248E3171084001AB007008AA00013068
:101D1000B502350801398F3113278E314001351C4A
:101D2000922E932E972E9A141A1519169A2E9A10EF
:101D30001A1119123508031D9E2E9F2EA32E9A10DC
:101D40001A111912B8010800F801F901C430F500A0
:101D50002230F6007808750786007908763D8700FE
:101D60000330F0000030F1007908F3007808F20049
:101D70008E313C268E317008F7000430F735890B20
:101D8000BE2E7708103E81000130F8070030F93D83
:101D9000013079022C3003197802031CD02ED12E89
:101DA000A62E5A304001B5000130B4002F08AB0018
:101DB0002E08AA000800F301F401F201C430F0007B
:101DC0002230F1007308700786007408713D8700A7
:101DD00001080319EC2EED2EFD2EC430F000223048
:101DE000F1007308700786007408713D8700811B3D
:101DF000FA2EFB2EFD2E0130F20072080319012F7E
:101E0000022F042F0030122F0130F3070030F43D71
:101E1000013074022C3003197302031C102F112F90
:101E2000DD2E013008004001CB00CC01CE01CD01F8
:101E30004B0803191C2F1D2F1F2F5930CE008B1359
:101E4000F601873118278F31410111114001CF016F
:101E5000D0014C088C318C248F3140014E088C31DC
:101E60008C248F3140014D088C318C248F3100300F
:101E70008C318C248F3101304001CF070030D03DB0
:101E8000013050022C3003194F02031C482F492FF8
:101E9000292F8C3168248F31A0300032890B4D2FCF
:101EA00010304001AE070030AF3D8B1708004001F5
:101EB000370303195C2F5D2F9A2F03303706031960
:101EC000622F632F9A2F7108F7007008F600013017
:101ED00077022B3003197602031C6F2F702F712F9E
:101EE000942FC430F2002230F30076087207860087
:101EF0007708733D8700C530F4002230F50076087E
:101F0000740784007708753D850000088100013062
:101F1000F6070030F73D013077022B3003197602C7
:101F2000031C932F942F712FEF30860023308700EE
:101F30008101A52FC430F2002230F300700872072F
:101F400086007108733D870081010800FA01FB01DA
:101F5000C430F8002230F9007A08780786007B0840
:101F6000793D870081010130FA070030FB3D0130E7
:101F70007B022C3003197A02031CBF2FC02FA82F1D
:101F80001830FA000130FB00C430F8002230F900AC
:101F90007A08780786007B08793D87008631A52678
:101FA0008F3181000130FA070030FB3D01307B02A8
:101FB0002C3003197A02031CDE2FDF2FC42F1830B8
:101FC0004001A8000130A900F430A6000130A700AC
:101FD000A401A5018C31D0248F3171084001A300E8
:101FE0007008A2008C31D0248F3171084001A1000B
:101FF0007008A0000130B8009A101A1119120800D8
:102000009C340C34003400341834073468340C34F5
:10201000003400340034003400340034DC340C3438
:102020000034003400340034003400340034003410
:10203000003400340034003424340A3410340934B9
:0220400000346A
:020000040001F9
:0A000E00EC3F3F3F9F3FFF3FFF3FE5
:00000001FF
